:03000000020A2AC7
:0C0A2A00787FE4F6D8FD75810E02097C8F
:1009C900E4FDFCC3ED9FEC9E5015E4FBFA0BBB0064
:0F09D900010AEB64714A70F50DBD00010C80E45A
:0109E80022EC
:050A4600010C063880E0
:1009FC008F90C286D2877F017E001209C9C28722DE
:100A0C008F90D286D2877F017E001209C9C28722BD
:10090F00780A7C007D007BFF7A0A79467E007F059E
:10091F001208D0E4F508F509740A2509F8E6FF1264
:10092F0009FC7F0A7E001209C90509E50970020555
:0C093F0008C39405E5086480948040DC47
:01094B002289
:1009A6008B088A09890AAB08AA09A90A1208F6FF60
:1009B6006010120A0C7401250AF50AE43509F509D6
:0309C60080E422A8
:0E0A1C005541525420495320526561647900BF
:10097C007F807E2512094C12090F7BFF7A0A791CA5
:10098C001209A67FE87E031209C97F011209FC3007
:0A099C0098FD120A3E120A0C80F5C5
:10094C00BE2505BF80027DFDBE1205BFC0027DFA2B
:10095C00BE0905BF60027DF4E4B50709EEB44B0592
:0F096C007587807DFD7589208D8D759850D28E91
:01097B002259
:080A36008F993099FDC299224D
:080A3E003098FDC298AF992227
:1009E9001208F6FF600C120A36740129F9E43AFA82
:0309F90080EE226B
:10080000E709F608DFFA8046E709F208DFFA803EDA
:1008100088828C83E709F0A3DFFA8032E309F608C7
:10082000DFFA8078E309F208DFFA807088828C832F
:10083000E309F0A3DFFA806489828A83E0A3F608E3
:10084000DFFA805889828A83E0A3F208DFFA804CBD
:1008500080D280FA80C680D4806980F28033801094
:1008600080A680EA809A80A880DA80E280CA8033FD
:1008700089828A83ECFAE493A3C8C582C8CCC58375
:10088000CCF0A3C8C582C8CCC583CCDFE9DEE78045
:100890000D89828A83E493A3F608DFF9ECFAA9F0C4
:1008A000EDFB2289828A83ECFAE0A3C8C582C8CC1A
:1008B000C583CCF0A3C8C582C8CCC583CCDFEADE33
:1008C000E880DB89828A83E493A3F208DFF980CC95
:1008D00088F0EF60010E4E60C388F0ED2402B4048E
:1008E0000050B9F582EB2402B4040050AF23234535
:0608F00082239008507302
:1008F600BB010689828A83E0225002E722BBFE0200
:09090600E32289828A83E4932232
:00000001FF
